:020000040800F2
:1000000008210020B90100080D4F000851410008E7
:1000100000000000000000000000000000000000E0
:10002000000000000000000000000000555C000817
:10003000000000000000000079530008575C000831
:10004000CB01000800000000CB010008CB01000834
:10005000CB010008DD120008CB010008ED120008FA
:1000600000000000CB010008CB0100085D11000872
:10007000CB010008CB010008CB0100080000000004
:10008000CB0100081D5D0008CB0100080D5D0008D4
:10009000CB010008CB010008CB010008CB01000810
:1000A000CB010008CB010008CB010008CB01000800
:1000B00031690008CB01000800F002F800F050F8A8
:1000C0000CA030C8083824182D18A246671EAB466D
:1000D00054465D46AC4201D100F042F87E460F3EE8
:1000E0000FCCB6460126334200D0FB1AA246AB46DF
:1000F0003343184794CC0000B4CC00000023002404
:1001000000250026103A01D378C1FBD8520700D34E
:1001100030C100D50B60704710B5642902D100F0E2
:100120004DF910BD752902D100F048F910BD6329C1
:1001300002D100F083FC10BD732902D100F086FCCF
:1001400010BD002010BD1FB500F094FD040000207C
:1001500000210CF0E1FC401C60601FBD10B510BD1B
:1001600000F068FD1146FFF7EEFF08F0F1F900F02E
:1001700094FD03B4FFF7F2FF03BC00F0DBFD0000C9
:1001800070B505460C46164602E00FCC0FC5103E72
:10019000102EFAD2082E02D303CC03C5083E042E3B
:1001A00007D301CC01C5361F03E021782970641CF8
:1001B0006D1C761EF9D270BD07488047074800477E
:1001C000FEE7FEE7FEE7FEE7FEE7FEE70448054937
:1001D000054A064B70470000095D0008B900000899
:1001E000081B002008210020081D0020081D0020F9
:1001F000FEB5054610460C46184373D0AE468C46F5
:100200000020AD1A01469C4167D3664600270124B1
:100210003D46B61A9D4102D313463A46212465460F
:1002200076462F04360C3E432D0CB61A9D4104D35E
:10023000150C1B042B4312041034654676462F061A
:10024000360A3E432D0AB61A9D4104D3150E1B02F1
:100250002B4312020834654676462F0736093E4383
:100260002D09B61A9D4104D3150F1B012B43120112
:10027000241D65467646AF07B6083E43AD08B61A5C
:100280009D4104D3950F9B002B439200A41C65460F
:100290007646EF0776083E436D08B61A9D411AD39D
:1002A00092185B41641C16E0001876466546494189
:1002B000B71A9D410191009009D36046B11A984147
:1002C0008E468446009801990025401C6941DD074F
:1002D00052082A435B08641EE6D57246634603B0A3
:1002E000F0BDFFE700200146C046C0462A4623462F
:1002F000F5E700000FB41CB5074B06AA7B4469461E
:100300000090059800F077FB0020694600F086FB1E
:100310001CBC08BC04B018471D07000070B504469B
:1003200085690068C10601D5302600E02026C00797
:1003300007D070BD62683046A1689047206A401CB3
:1003400020626D1EF6D570BD70B5044685690078D3
:10035000C00707D170BD6268A16820209047206A5D
:10036000401C20626D1EF6D570BD70B50C4605466A
:10037000012A05D02878800600D5EA69002302E02A
:10038000012305E05B1C934202D2E05C0028F9D116
:10039000A869E618C01AA861286AC0182862284609
:1003A000FFF7BCFF04E06A682078A968641C9047E6
:1003B000B442F8D32846FFF7C7FF70BDF7B5002554
:1003C00075291068009914A611D0C046C0460028AF
:1003D00002DA404211A608E0009909688A0701D5AF
:1003E0000FA602E0490704D50EA6012501E0C0468C
:1003F000C046009F0024243704E000F087FB303122
:100400003955641C0028F8D12B4632462146009805
:1004100000F094FAFEBD0000000000002D00000076
:100420002B00000020000000F3B50446002081B03E
:1004300020622046E168884700287DD0252802D028
:100440006268A16883E0454F00257F442046E1684B
:1004500088472028064608DB312E06D2B8192038F6
:100460000078002801D00543F0E7A80701D5042053
:1004700085430020E0610746A0612A2E0AD030465D
:1004800006F0A1FB002827D0B8000019303E0090EC
:10049000866119E00298BA00121902C891610290AF
:1004A0002046E1688847012F064617D1E0690028F9
:1004B0001FDA202085431CE000980A218069484308
:1004C00000998019303888612046E16888470646DF
:1004D00006F079FB0028EFD1012F0AD02E2E08D18B
:1004E0002046E16888470646202005437F1C022FEE
:1004F000C3DBA069002803DA4042A0610120054364
:10050000E80701D010208543002E24D03046413822
:10051000192803D80120C002054320362046256053
:100520003146029A1546FFF7F7FD00280CD0012846
:1005300007D0ED1DE80800E00DE0C0000830029093
:1005400077E72D1D029574E762683046A1689047F1
:10055000206A401C6CE7206AFEBD0000C2C8000093
:1005600070B5064600F0E6F90468054630460A22F2
:10057000002100F06FFA2C6070BD000010B5024A37
:1005800000F0A0FA10BD0000EC06002030B50546D2
:100590000B462A461C781078521C5B1C002801D0A0
:1005A000A042F7D0002C03D0002802D06D1CEFE74A
:1005B000284630BD30B5441C03E00178401C0029BA
:1005C0000DD08107F9D10B4BDD0104C8D11A91433D
:1005D0002940FAD0001B0A0603D0C01E30BD001B04
:1005E00030BD0A0401D0801E30BD0902FCD0401E7F
:1005F00030BD000001010101421E5378521C002B46
:10060000FBD10B78491C1370521C002BF9D1704799
:10061000F8B5042A2CD3830712D00B78491C037039
:10062000401C521E83070BD00B78491C0370401CE2
:10063000521E830704D00B78491C0370401C521EC5
:100640008B079B0F05D0C91ADF002023DE1B08C9CA
:100650000AE0FFF795FDF8BD1D4608C9FD401C46A0
:10066000B4402C4310C0121F042AF5D2F308C91A53
:10067000521EF0D40B78491C0370401C521EEAD461
:100680000B78491C0370401C012AE4D409780170DE
:10069000F8BD431A70B593421BD28918801804E044
:1006A000491E401E0B78521E03709307F8D106E0D6
:1006B0001039103878C9103978C01038103A102A1B
:1006C000F6D203E0091F001F0B680360121FF9D563
:1006D00070BDFFF755FD70BDF8B5064614460843DA
:1006E000800707D0751AA54219D20819102D13D208
:1006F000311907E03046FFF7CCFFF8BD401E491E18
:1007000002780A70641EF9D2F8BD471B2A463946A2
:10071000FFF77EFF641B3846A542F6D3011B224635
:100720003046FFF775FFF8BD01E004C0091F04293A
:10073000FBD28B0701D50280801CC90700D0027054
:10074000704700290BD0C30702D00270401C491E1D
:10075000022904D3830702D50280801C891EE3E7A7
:100760000022EEE70022DFE7F8B507460B463946E0
:100770001943890713D1164CE601042A0FD302CB83
:100780000D1B8D43354202D102C0121FF5E7CBB2DB
:100790000370401C521E002B13D0090AF7E7002AF1
:1007A00014D01978521E5B1C0170401C002908D01F
:1007B000002A0BD01978521E5B1C0170401C0029C6
:1007C000EDD1002A02D01146FFF7CAFF3846F8BD26
:1007D00001010101002203098B422CD3030A8B4241
:1007E00011D300239C464EE003460B433CD4002229
:1007F00043088B4231D303098B421CD3030A8B423B
:1008000001D394463FE0C3098B4201D3CB01C01A08
:10081000524183098B4201D38B01C01A52414309D3
:100820008B4201D34B01C01A524103098B4201D3C1
:100830000B01C01A5241C3088B4201D3CB00C01A2E
:10084000524183088B4201D38B00C01A52414308A6
:100850008B4201D34B00C01A5241411A00D20146CB
:100860005241104670475DE0CA0F00D04942031064
:1008700000D34042534000229C4603098B422DD3B3
:10088000030A8B4212D3FC22890112BA030A8B425B
:100890000CD3890192118B4208D3890192118B42AA
:1008A00004D389013AD0921100E08909C3098B422F
:1008B00001D3CB01C01A524183098B4201D38B0172
:1008C000C01A524143098B4201D34B01C01A524115
:1008D00003098B4201D30B01C01A5241C3088B425A
:1008E00001D3CB00C01A524183088B4201D38B0045
:1008F000C01A5241D9D243088B4201D34B00C01ACF
:100900005241411A00D20146634652415B101046E3
:1009100001D34042002B00D54942704763465B102B
:1009200000D3404201B50020C046C04602BD70471A
:100930007047704700487047A81A0020FFB504466A
:100940000D4681B0243000902168880604D510221D
:10095000E0699143216000E00120A84201DD471BCE
:1009600000E000270498A1697A191018081AA061FC
:100970002078C00602D42046FFF7D0FC002608E00D
:1009800003986268A168805D9047206A401C761CCD
:10099000206204988642F3DB2078C0060AD5204600
:1009A000FFF7BCFC06E06268A16830209047206A2F
:1009B000401C206238467F1E0028F4DC07E00098C7
:1009C0006268A168405D9047206A401C206228460A
:1009D0006D1E0028F3DC2046FFF7B6FC20780006E9
:1009E00002D5022005B0F0BD0120FBE701694A1CD9
:1009F00002610878704700B58FB00291002105911F
:100A00000549019379440391114604906846FFF724
:100A10000BFD0FB000BD0000E5FFFFFF0A6810707E
:100A2000521C0A60704710B54369002B02D0C046C3
:100A3000C04601E0FFF799FC012010BD1278014685
:100A400024310A7000224A700122ECE7116800226A
:100A5000D243E8E7F7B50F460026009C2578641CD2
:100A6000002D05D000F06AF80068405DC007F5D1A0
:100A70002B2D02D02D2D18D0641E3946029A204607
:100A800000F064F8002F04D03968A14201D1009928
:100A900039607105022400290BDA4042002803DD89
:100AA000FFF748FF0460A007FEBD01208002064357
:100AB000E3E70028F8DAFFF73DFF04600048FEBDD9
:100AC000FFFFFF7FF8B515460E46040003D12C68E2
:100AD000002C00D10CA4204600F09CF804192078CA
:100AE00000280ED027463146384600F082F8041917
:100AF0002078002802D000202070641C38462C602A
:100B0000F8BD0027FAE70000000000000146800859
:100B1000081A02091018020A1018020C1018C0084E
:100B2000820012185200891A01E0401C0A390A2971
:100B3000FBD2704700487047A81A002010B500F09B
:100B400099F8001D10BD00BFD1BF0000F7B51546D4
:100B500082B00027029C2078641C0197302802D0C4
:100B6000002D15D015E020780127641C782804D0CA
:100B7000582802D0002D09D00BE0002D01D0102DF7
:100B800007D1207800271025641C02E0082500E02A
:100B90000A250026009610E00099012769430818ED
:100BA00029467143020C80B200908E1838048642A8
:100BB00001D3012001902078641C294600F05EF8E2
:100BC0000028E9DA0398002805D0002F01D0641E20
:100BD00000E0029C04600198002806D0FFF7AAFEFE
:100BE00002210160C81E05B0F0BD00993004084321
:100BF000F9E730B503461D78002D03D00A4603E01F
:100C0000AC4201D1181A30BD1478521C002CF7D117
:100C10005B1CF0E730B503461D78002D08D00A466E
:100C20001478521C002C03D0AC42F9D15B1CF3E7C2
:100C3000181A30BD7546FFF77DFFAE4605006946C0
:100C40005346C008C000854618B020B5FFF7BEFA6D
:100C500060BC00274908B6460026C0C5C0C5C0C54F
:100C6000C0C5C0C5C0C5C0C5C0C5403D49008D4652
:100C70007047000000487047C81A00203A2800D288
:100C80003038202302469A43412A01D31046373890
:100C9000884201D30020C043704710B50446C046C7
:100CA000C0462046FFF765FA10BD0000024670B549
:100CB0000A4392072AD11E4DEE0104C808C9541BED
:100CC0009443344017D0D0B2D9B2401A2106014320
:100CD00010D190B299B2401A210401430AD11002F6
:100CE0001902000A090A401A2102014302D1100E1A
:100CF000190E401A70BD9A42DFD010BA19BA884254
:100D000001D9012070BD0020C04370BD02780B786E
:100D1000401C491C002A09D09A4207D102780B785E
:100D2000401C491C002A01D09A42EFD0D01A70BD55
:100D30000101010101491820ABBEFEE726000200B7
:100D4000704770B58C180578401C6B075B0F01D19C
:100D50000378401C2A1106D10278401C03E0067873
:100D6000401C0E70491C5B1EF9D12B0705D40023D3
:100D7000521E0DD40B70491CFAE70378401CCB1AA5
:100D8000921C03E01D780D70491C5B1C521EF9D5A6
:100D9000A142D8D3002070BDF0B587B08C48049034
:100DA00001228C48049900F041FA89480078012812
:100DB00019D100208849087001208849087003F083
:100DC000CFFB0021084603F0EBFB85A003F042FCBB
:100DD0000121002003F0E4FB84A003F03BFCFF2092
:100DE000F53000F0D9FC8348039001227948401C7B
:100DF000039900F01BFA7F480078012818D10020E1
:100E00007D49087002207549087003F0A9FB002194
:100E1000084603F0C5FB79A003F01CFC012100206B
:100E200003F0BEFB71A003F015FCC82000F0B4FC79
:100E300067480078012806D16E480078012802D161
:100E4000032066490870704E0122314661480F3810
:100E500000F0ECF930460078012808D00F226BA191
:100E60006E48FFF781FC00206C49C8730CE06B4FA3
:100E7000002407E057496039601800F0A7F9385599
:100E8000601CC4B2102CF5DB654801F091FA65488E
:100E9000069001224F480E38069900F0C7F96148C4
:100EA0000078012803D060A000F0DCF80EE0624872
:100EB0000590002408E047495039601800F086F991
:100EC00005990855601CC4B2412CF4DB5B4D01222E
:100ED000294640480D3800F0A9F928460078012835
:100EE0000CD1574D002407E03A490B39601800F047
:100EF0006DF92855601CC4B2042CF5DB484801F09C
:100F000057FA504D0122294632480C3800F08EF92C
:100F10002846007801280CD14B4D002407E02D49CC
:100F2000891F601800F052F92855601CC4B2062CC5
:100F3000F5DB46480290012226486738029900F006
:100F400075F942480078012808D1414801900222F1
:100F500020486638019900F069F900BF3C480088D4
:100F6000F02802DB03203A4908802D4801F020FADE
:100F7000384D042229461748C01C00F057F928466E
:100F800000680021C0434940084301D12946086058
:100F90003048006830490860304D0122294602205F
:100FA00000F044F9284600785A2802DD0520294639
:100FB00008702B4D01222946182000F037F92846E9
:100FC00000780B2802DD00202946087007B0F0BD2C
:100FD0008000002049040000820000207E000020E4
:100FE0005241494E2053454E534F520044495341BC
:100FF000424C450083000020850000204C462053D1
:10100000454E534F52000000750100203130332E01
:1010100039332E39342E31303300000021010020C5
:10102000BC0B00207601002061697274656C6770EA
:1010300072732E636F6D0000E00000207F010020BE
:101040008001002077010020310100207000002085
:101050006C0000209001002094010020530000202B
:10106000AC06002010B50446402221460348FFF795
:101070007BFB002101484030017010BDE0000020E2
:1010800070B50546294801F093F9402229462848C1
:10109000FFF76AFB002126484030017001202549F6
:1010A00008700E4601223146234800F001F91F481E
:1010B00001F07EF91E4E002407E0315D1E4A423ADF
:1010C000A01800F0C9F8601CC4B2412CF5DB174829
:1010D00001F06EF9012211020920C00600F025FE80
:1010E000002210210920C00600F01FFE0F4801F069
:1010F0005FF9FF20F53000F04FFB03F031FA0021DB
:10110000084603F04DFA0DA003F0A4FA01210020D7
:1011100003F046FA0DA003F09DFA05F05BFD7D207B
:10112000000100F039FB01F0E7F970BDBC0B0020B5
:10113000E0000020760100203B04000041504E20DA
:1011400053455420444F4E45000000004E4F572059
:101150005245424F4F54494E4700000010B50348D6
:1011600000F025FA024800F022FA10BD900D002090
:101170004C0D002010B50446054A2168881A142138
:10118000FFF728FB8000206401480838E06310BDA9
:101190000800024030B50124056CAC40C56B6C60A2
:1011A000046863604468102C04D10468A260046879
:1011B000E16003E00468A1600468E26030BD000003
:1011C0000149088070470000B8060020F0B585B0DE
:1011D000044600200490A1271248008884421DDAAA
:1011E000E5B2104800880121C902884202D92012C4
:1011F000039003E0261270003843C7B200BF7D2081
:10120000C000012104AA0B460092019102902A46D7
:101210003946054800F070FE0028F0D16846007C91
:1012200005B0F0BDB8060020140B002070B50646CE
:101230000C4615460CE03046FFF7C8FF20702078BA
:10124000002800D170BD701C86B2641C681E85B277
:10125000002DF0D100BFF5E7F3B585B00446A02717
:101260001148008884421DDAE5B20F480088012148
:10127000C902884202D92012049003E026127000AD
:101280003843C7B200BF7D20C000012106AA0B462B
:101290000092019102902A463946044800F002FF6C
:1012A0000028F0D107B0F0BDB8060020140B0020D4
:1012B00070B506460C4615460CE021783046FFF71F
:1012C000CBFF2078002800D170BD701C86B2641C52
:1012D000681E85B2002DF0D100BFF5E710B50120E2
:1012E00000F012FC022000F00FFC10BD10B5202011
:1012F00000F00AFC402000F007FC802000F004FC15
:101300000120800200F000FC10BD72B600BFFEE7B5
:1013100038B503F025F900204E4908804E49088071
:1013200021204E49086092E04C480068212826D1CF
:101330004B4801F03DF84B4847490988405C4A4911
:1013400008700220494908700021084603F028F976
:1013500047A003F07FF90121002003F021F93E4866
:10136000008880004649421846A14D48FEF7C2FF5A
:101370004B4803F06FF9FF20F53000F00DFA3548C7
:10138000008801284AD1474800887D21C900884249
:1013900044DA35480078022840D1084600F0FCF9CC
:1013A0002F4801F005F8102405E0FF212046FFF743
:1013B00053FF601C84B23C488442F6DB002000905E
:1013C00001226946FFF774FF012269461A20FFF7E0
:1013D0006FFF012269460520FFF76AFF0122694677
:1013E0000F20FFF765FF012269460B20FFF760FF22
:1013F000012269460D20FFF75BFF012269460820A4
:10140000FFF756FF012269460920FFF751FFFF2031
:10141000F53000F0C1F901F06FF818E00D480088D0
:10142000012814D11F4800887D21C90088420EDAA6
:101430000D48007801280AD1094800F0B9FF0020C2
:1014400006490860034908800349088000E06BE70B
:1014500000BF38BDE6050020E8050020000600209A
:10146000BC0B00203E01002055010020A2060020F8
:1014700045524153452C20535552453F0000000032
:10148000470100202025732020202020202020201C
:10149000202020202020202020202020202020006C
:1014A000041700209C0600204B0400000146212068
:1014B000405C022808D00420886300BF002220205E
:1014C000425400BF01207047086800680E22904314
:1014D0000A68106008680068400840000A681060E8
:1014E00001200A6C9040CA6B5060012221204254B6
:1014F00000BF00222020425400BF0020E3E770B567
:10150000044600252120005D022803D00420A063AA
:1015100001251EE0206800680E21884321680860CC
:101520002068006840084000216808600120216CA4
:101530008840E16B486001212120015500BF002156
:101540002020015500BF606B002802D02046616B4F
:101550008847284670BD10B50446002C01D10120F3
:1015600010BD206800684008400021680860002025
:101570002168086021684860216888602168C86027
:101580002046FFF7F7FD0120216C8840E16B4860A1
:101590000020A062E06220636063A063002121203C
:1015A000015500BF2020015500BF0020D8E770B5CD
:1015B0000446E06B0568206806680420216C8840BA
:1015C000284000281BD004203040002817D0206875
:1015D000006820210840002805D120680068042107
:1015E0008843216808600420216C8840E16B4860D2
:1015F000E06A002852D02046E16A88474EE0022087
:10160000216C88402840002823D002203040002848
:101610001FD02068006820210840002808D12068D9
:1016200000680A21884321680860012121200155B2
:101630000220216C8840E16B486000BF002120201F
:10164000015500BFA06A002828D02046A16A88471B
:1016500024E00820216C8840284000281ED0082063
:10166000304000281AD0206800680E218843216885
:1016700008600120216C8840E16B48600120A06374
:1016800001212120015500BF00212020015500BF6C
:10169000206B002802D02046216B884770BD0000D7
:1016A00070B504460025002C01D1012070BD022137
:1016B00021200155206805680F480540A168606831
:1016C0000843E16808432169084361690843A16947
:1016D0000843E16908430543206805602046FFF799
:1016E00049FD0020A0630121212001550021202077
:1016F00001550020DAE700000FC0FFFFF8B50446EF
:101700000D4616461F460020009000BF2020005DB9
:10171000012801D10220F8BD01212020015500BF80
:101720002120005D01282DD102212120015500201A
:10173000A0632068006840084000216808603B46BC
:10174000324629462046FFF725FDE06A002806D0EC
:10175000206800680E210843216808600BE02068BB
:1017600000680A2108432168086020680068042195
:1017700088432168086020680068012108432168C7
:10178000086006E000BF00212020015500BF0220B4
:1017900000900098BFE7000070B5044600F0CCFA56
:1017A00006462546681C002802D0054800782D18FA
:1017B00000BF00F0C1FA801BA842FAD370BD000040
:1017C000E4060020F0B502460B4600206FE001253C
:1017D000854029461940002968D0374D8608B60053
:1017E000AC5985072E0F0F25B5402C400925ED0675
:1017F000AA4201D100250FE0304DAA4201D10125B6
:101800000AE02F4DAA4201D1022505E02D4DAA4242
:1018100001D1032500E005258607360FB540A54216
:101820001ED1294D2D688D43274E356035466D6894
:101830008D4375603546ED688D43F5603546AD687E
:101840008D43B56085072E0F0F25B5402C461A4DE8
:101850008608B600AD59A543174E8708BF00F5515D
:10186000156847000326BE40B5431560C508AE00A5
:1018700015462035AD594607F70E0F26BE40B54335
:10188000C608B60017462037BD51D5684700032665
:10189000BE40B543D560556801268640B5435560C6
:1018A000956847000326BE40B5439560401C1D4621
:1018B000C540002D8BD1F0BD080001400004004858
:1018C00000080048000C00480004014010B5044620
:1018D000022C33D175480068002804D101207449D6
:1018E000087006F0FFFD00F027FA7249086008460C
:1018F000006871490968401A7049098888421DD9F1
:101900006C4800686C49086000206D4908606D48AB
:1019100000886D4908806D480088401C6B4908802C
:10192000084600886A490978884202DB0020674936
:10193000088000206749088062490880012C25D171
:101940005A480068002804D101205949087006F05F
:10195000C9FD00205A4908605F480088401C5E4964
:10196000088058480088401C56490880084600886E
:101970005A490978884202DB002052490880002039
:10198000544908805049088055490880802C2DD141
:1019900046480068002804D101204549087006F037
:1019A000A1FD0020464908604B480088401E4A4976
:1019B00008804B480088401C494908800846008838
:1019C00048490978884202DB0020454908803D48A3
:1019D0000088002805D03B480088401E394908800F
:1019E00004E03E480078401E36490880402C2FD144
:1019F0002E480068002804D101202D49087006F007
:101A000071FD00202E49086035480088401C34498B
:101A100008800846008833490978884202DB0020A4
:101A20002F49088029480088002804D027480088CA
:101A3000401E264908800020264908802A4908605F
:101A400001202A49086000201E4908801E4908809C
:101A5000202C08D126480078012804D11948008894
:101A60000A30184908800120800284421CD1214894
:101A70000078012818D120480078401C1E490870C1
:101A8000084600780A280AD11C480068401C1B49F7
:101A90000860002018490870012019490870194889
:101AA0000078401C1749087010BD0000DC000020C1
:101AB0004F010020B4060020B0060020AE06002032
:101AC000A8060020E8050020EE050020E60500201D
:101AD000A10600209C060020EA050020A2060020A6
:101AE000EC050020A3060020F805002004060020D5
:101AF000420100207F000020AC0600209001002061
:101B0000980100208C01002010B50446054840696A
:101B10002040002804D0034844612046FFF7D6FE49
:101B200010BD00000004014078B503460A460021BC
:101B3000DFE001268E4014683440002C7ED01579F9
:101B4000AD07AD0F012D04D01579AD07AD0F022DF6
:101B500018D198684E000325B5400646AE4330467E
:101B60004E00D568B54028439860586801258D40DF
:101B70000646AE4330461026556835402D098D4047
:101B8000284358601579AD07AD0F032D0BD0D868E9
:101B90004E000325B5400646AE4330464E009568DC
:101BA000B5402843D8601579AD07AD0F022D15D18A
:101BB000CD08AE001D462035A8594D07EE0E0F2565
:101BC000B5400646AE4330464E07F60E1569B540A1
:101BD0002843CD08AD001E462036705118684E00CF
:101BE0000325B5400646AE4330461579AD07AD0F27
:101BF0004E00B5402843186003263604556835402A
:101C0000002D75D000BF3E4DAD69012635433C4ED9
:101C1000B5613546AD69ED07ED0F009500BF00BF1A
:101C2000384D8E08B600A8598D072E0F0F25B540E8
:101C30000646AE4330460925ED0600E058E0AB42CB
:101C400001D100250FE0304DAB4201D101250AE062
:101C50002E4DAB4201D1022505E02D4DAB4201D105
:101C6000032500E005258E07360FB5402843254D96
:101C70008E08B600A851274DA8680546A5432846FA
:101C80000126360555683540002D02D0054625430E
:101C90002846204DA860E8680546A5432846012649
:101CA000760555683540002D02D005462543284667
:101CB000184DE86068680546A54328460126760465
:101CC00055683540002D02D0054625432846114D64
:101CD000686028680546A5432846012636045568ED
:101CE0003540002D02D0054625432846094D286081
:101CF000491C1568CD40002D00D01AE778BD0000C2
:101D0000001002400800014000040048000800489C
:101D1000000C004800040140024613690B40002BF0
:101D200001D0012000E000207047002A01D081612D
:101D300000E08162704700000148006870470000C1
:101D4000DC06002002464120805C20282FD100BF05
:101D50004020805C012801D10220704701234020EF
:101D6000835400BF24234120835410680068400836
:101D70004000136818601068006801231B03984333
:101D800013681860106800680843136818601068CA
:101D900000680123184313681860202341208354EE
:101DA00000BF00234020835400BF0020D5E702205D
:101DB000D3E710B502460B464120805C20282ED187
:101DC00000BF4020805C012801D1022010BD012409
:101DD0004020845400BF24244120845410680068AB
:101DE0004008400014682060106801680F24240235
:101DF0000846A043014618020143106801601068BC
:101E00000068012420431468206020244120845469
:101E100000BF00244020845400BF0020D6E70220E9
:101E2000D4E7000010B50446002C01D1012010BDFC
:101E30004120005D002805D10021402001552046A9
:101E400000F002FA24214120015520680068400872
:101E50004000216808600F210906606888432168F6
:101E60000861206880680121C9038843216888606F
:101E7000E068012806D10121C903A0680843216850
:101E8000886005E021218902A068084321688860F4
:101E9000E068022802D1800221684860206840681A
:101EA00014490843216848602068C0680121C903BB
:101EB00088432168C860616920690843A1690902F3
:101EC00008432168C860216AE06908432168086006
:101ED00020680068012108432168086000206064D0
:101EE000202141200155002020630021422001557E
:101EF00000209CE700800002FFB583B004460C9FE1
:101F00000E9E4120005D20287ED1002F02D00D982A
:101F1000002805D1012040026064012007B0F0BD17
:101F200000BF4020005D012801D10220F6E7012119
:101F30004020015500BFFFF7FFFE0546192301228F
:101F4000D1032046009502F06BFA002801D0012051
:101F5000E4E7222141200155402142200155002083
:101F6000606467620D98608500206063009601954B
:101F7000204604A90EC902F0B5F9002806D000BF1A
:101F800000214020015500BF0120C7E7608DFF28D8
:101F90000CD9FF20208541480090208DC2B201233A
:101FA0001B062046049902F01DFA0BE0608D208587
:101FB0003A480090208DC2B201235B062046049966
:101FC00002F010FA00BF334600220421204600959B
:101FD00002F026FA002801D001209FE72068406A1D
:101FE000616A0870606A401C6062208D401E208516
:101FF000608D401E6085608D00282BD0208D0028CC
:1020000028D13346002200E045E08021204600959B
:1020100002F006FA002801D001207FE7608DFF283A
:102020000CD9FF20208500200090208DC2B2012312
:102030001B062046049902F0D5F90BE0608D20853F
:1020400000200090208DC2B201235B062046049937
:1020500002F0C8F9608D0028B5D12A4631462046E5
:1020600002F014FA002801D0012057E7202021684F
:10207000C861206840680A490840216848602021FA
:102080004120015500214220015500BF402001554B
:1020900000BF002042E7022040E70000002400804B
:1020A00000E800FEFFB583B004460C9F0E9E412061
:1020B000005D20287ED1002F02D00D98002805D188
:1020C000012040026064012007B0F0BD00BF402045
:1020D000005D012801D10220F6E7012140200155D1
:1020E00000BFFFF729FE054619230122D103204630
:1020F000009502F095F9002801D00120E4E72121A4
:102100004120015540214220015500206064676252
:102110000D9860850020606300960195204604A913
:102120000EC902F01FF9002806D000BF0021402090
:10213000015500BF0120C7E7608DFF280CD9FF20A3
:10214000208500200090208DC2B201231B0620466E
:10215000049902F047F90BE0608D20850020009083
:10216000208DC2B201235B062046049902F03AF9A1
:1021700000BF2A463146204602F0BBF9002801D0B4
:102180000120A1E7606A007821688862606A401CCB
:102190006062608D401E6085208D401E2085608DB0
:1021A00000282BD0208D002828D133460022802102
:1021B000204600E043E0009502F032F9002801D00B
:1021C000012081E7608DFF280CD9FF2020850020A9
:1021D0000090208DC2B201231B062046049902F014
:1021E00001F90BE0608D208500200090208DC2B2A7
:1021F00001235B062046049902F0F4F8608D002864
:10220000B7D12A463146204602F040F9002801D0D5
:10221000012059E720202168C861206840680949E9
:1022200008402168486020214120015500214220BA
:10223000015500BF4020015500BF002044E70220A7
:1022400042E7000000E800FE10B586B00446142105
:1022500001A8FEF787FA3349206888422DD100BFD4
:10226000314840690121890408432F4948610846E3
:102270004069012189040840009000BF00BFC020D0
:10228000019012200290012003900320049001206D
:10229000059001A92548FFF747FC00BF2248C06907
:1022A0000121490508432049C8610846C069012148
:1022B00049050840009000BF32E01D49206888426F
:1022C0002ED100BF184840690121890408431649EE
:1022D000486108464069012189040840009000BF18
:1022E00000BF032080020190122002900120039081
:1022F000032004900120059001A90C48FFF714FC6D
:1023000000BF0948C0690121890508430649C86121
:102310000846C069012189050840009000BF00BF40
:1023200006B010BD005400400010024000040048F8
:102330000058004070B50446002C01D1012070BD4A
:10234000184821680860184821680860216860689A
:1023500048602168A0688860FFF7EEFC05460CE045
:10236000FFF7EAFC401B272807D92068C068400710
:10237000400F002801D00320E1E72068C068400733
:10238000400F0028ECD120680169E068814203D049
:102390002168E068086102E00448216808600020C4
:1023A000CDE70000CCCC000055550000AAAA0000E3
:1023B000014602480A68106000207047AAAA00007F
:1023C00003480068034909784018014908607047CC
:1023D000DC060020E406002010B506480068102145
:1023E000084304490860002000F006F800F02EF8C9
:1023F000002010BD0020024070B50446104801784E
:102400007D20C000FEF7E6F9064631460D4800681B
:10241000FEF7E0F9054600F0B1FF002801D00120E9
:1024200070BD042C07D200222146501E00F05AF83D
:102430000548046001E00120F2E70020F0E7000019
:10244000E4060020E8060020E006002008B500BFF2
:102450000D488069012108430B498861084680695D
:10246000C007C00F009000BF00BF00BF0846C06992
:10247000090408430449C8610846C06909040840C2
:10248000009000BF00BF08BD0010024001460029B7
:1024900015DBCB06DB0E01229A400A4B1A6000BF07
:1024A00000BF00BFBFF34F8F00BF00BF00BF00BF22
:1024B00000BF00BFBFF36F8F00BF00BF00BF00BFF2
:1024C0007047000080E100E00146002905DBCB06F3
:1024D000DB0E01229A40024B1A6000BF70470000D9
:1024E00000E100E070B504460D4616462946204638
:1024F00004F024FB70BD000000BF00BF00BF00BFA0
:1025000000BFBFF34F8F00BF00BF00BF06480749A1
:10251000C86000BF00BF00BFBFF34F8F00BF00BF48
:1025200000BF00BF00BFFDE70400FA0500ED00E0BA
:1025300003480068FF2101310843014908607047E2
:1025400000700040F8B5044600260025012109046A
:102550002068084088427AD100274B48C0690903A7
:10256000084000280DD100BF4748C06908434649CC
:10257000C8610846C06909040840009000BF00BF58
:10258000012742480068FF2101310840002816D188
:102590003E48006808433D490860FFF7CDFB06460A
:1025A00006E0FFF7C9FB801B642801D90320F8BDB2
:1025B00036480068FF21013108400028F1D0324838
:1025C000006A0321090208400546002D2DD06068ED
:1025D0000840A84229D02C48006A884305462A486A
:1025E000006A012109040843274908620846006A75
:1025F0000121090488432449086208460562E80766
:10260000C00F002811D0FFF797FB064607E0FFF741
:1026100093FB801B1E49884201D90320C7E71A4853
:10262000006A022108400028F1D01748006A0321FF
:10263000090288436168084313490862012F05D1E4
:102640000846C069090488430F49C86100BF207863
:10265000C007C00F002807D00B48006B800880001F
:10266000A168084308490863202120680840202801
:1026700007D10548006B10218843E16808430249EF
:102680000863002093E70000001002400070004043
:102690008813000070B504460D46002C01D10120BE
:1026A00070BD52480068C007C00FA8420ED24F4804
:1026B00000684008400028434C490860084600680C
:1026C000C007C00FA84201D00120E9E7022120681D
:1026D0000840022814D1042120680840042807D1AA
:1026E0004348406807210902884340184049486030
:1026F0003F484068F0218843A16808433C4948604E
:102700002078C007C00F00283BD06068012808D19E
:1027100037480068012149040840002815D10120EC
:10272000BEE76068022808D13148006801214906E7
:102730000840002809D10120B2E72D480068022195
:102740000840002801D10120AAE7294840688008F4
:1027500080006168084326494860FFF7EDFA0646A5
:1027600007E0FFF7E9FA801B2249884201D90320DC
:1027700096E71F4840680C2108406168890088423C
:10278000EFD11A480068C007C00FA8420ED91748F9
:102790000068400840002843144908600846006863
:1027A000C007C00FA84201D0012079E704212068AA
:1027B0000840042808D10E484068072109028843D0
:1027C000E16808430A49486000F032F8084949685E
:1027D000F02211400909084A515CC84007490860C5
:1027E0000020FFF709FE00205AE700000020024009
:1027F0000010024088130000F8CC0008E806002012
:102800000148006870470000E806002000B5FFF7A7
:10281000F7FF05494968072212021140090A034AD5
:10282000515CC84000BD00000010024008CD000807
:10283000F8B50025002400270026002000901F483E
:1028400045680C202840002832D0042802D00828EF
:102850002DD102E01A4800902DE00F20800428407E
:10286000800C18490E5C1548C06A0007000F164915
:102870000C5C0320C00328400121090488420AD1CE
:10288000224600230E481946FDF7B2FC314604F0FB
:102890003DF9074609E0224600230C481946FDF79A
:1028A000A7FC314604F032F90746009703E000BF69
:1028B0000648009000BF00BF0098F8BD001002401D
:1028C0000024F400D8CC0008E8CC000800127A00FC
:1028D000FEB50446002C01D10120FEBD2078C007C2
:1028E000C00F002872D0FC4840680C210840042822
:1028F0000CD0F94840680840082813D1F6484068D1
:10290000490308400121090488420BD1F2480068BC
:1029100001214904084000286BD06068002868D174
:102920000120DAE700BF6068012807D1EA480068A3
:10293000012109040843E849086031E06068002883
:102940000ED1E5480068012109048843E249086086
:1029500008460068012189048843DF4908601FE0B8
:10296000606805280ED1DC4800680121890408430D
:10297000D949086008460068012109040843D6497E
:1029800008600DE0D4480068012109048843D24959
:10299000086008460068012189048843CE49086020
:1029A00000BF6068002812D0FFF7C6F9054606E0B0
:1029B000FFF7C2F9401B642801D903208DE7C64800
:1029C00000680121490408400028F1D011E0FFF718
:1029D000B3F9054606E0FFF7AFF9401B642801D9BB
:1029E00003207AE7BC480068012149040840002818
:1029F000F1D1022120680840022862D1B64840681F
:102A00000C21084000280CD0B34840680840082832
:102A10001CD1B1484068490308400121C9038842DC
:102A200014D1AD48006802210840002804D0E068B5
:102A3000012801D0012050E7A7480068F821884309
:102A40002169C9000843A44908603AE0E068002809
:102A500020D0A1480068012108439F490860FFF782
:102A60006BF9054606E0FFF767F9401B022801D91C
:102A7000032032E798480068022108400028F2D07D
:102A800095480068F82188432169C90008439249A4
:102A9000086016E090480068400840008E490860D1
:102AA000FFF74AF9054606E0FFF746F9401B022802
:102AB00001D9032011E78848006802210840002856
:102AC000F2D1082120680840082831D1E0690028A7
:102AD00017D08148406A012108437F494862FFF7C7
:102AE0002BF9054606E0FFF727F9401B022801D91C
:102AF0000320F2E67848406A022108400028F2D01C
:102B000016E07548406A4008400073494862FFF784
:102B100013F9054606E0FFF70FF9401B022801D91B
:102B20000320DAE66C48406A022108400028F2D10E
:102B3000042120680840042872D1002001906648D2
:102B4000C0698906084000280ED100BF6248C069EC
:102B500008436149C8610846C069090408400090FB
:102B600000BF00BF012001905C480068FF210131D7
:102B70000840002816D159480068084357490860A2
:102B8000FFF7DAF8054606E0FFF7D6F8401B6428A1
:102B900001D90320A1E651480068FF210131084016
:102BA0000028F1D000BFA068012806D14A48006A79
:102BB00001210843484908622AE0A06800280BD197
:102BC0004548006A4108490043480162006A0421FF
:102BD0008843414908621BE0A06805280CD13E48A3
:102BE000006A042108433C4908620846006A012142
:102BF0000843394908620BE03748006A4008400042
:102C0000354908620846006A04218843324908624F
:102C100000BFA068002813D0FFF78EF8054608E033
:102C20002BE0FFF789F8401B2D49884201D903208A
:102C300053E62948006A022108400028F1D011E03B
:102C4000FFF77AF8054607E0FFF776F8411B2448BE
:102C5000814201D9032040E61F48006A0221084052
:102C60000028F1D10198012806D11B48C069012133
:102C7000090788431849C86100BF1021206808402F
:102C800010285FD1606901282CD11348406B0421C2
:102C90000843114948630846406B012108430E4927
:102CA0004863FFF749F8054606E0FFF745F8401B83
:102CB000022801D9032010E60748406B0221084092
:102CC0000028F2D00448406BF8218843A169C9006C
:102CD00008430149486335E000100240007000409D
:102CE000881300006069401D00280FD15A48406BCE
:102CF00004218843584948630846406BF8218843BB
:102D0000A169C9000843544948631BE05248406B1D
:102D100004210843504948630846406B400840007E
:102D20004863FFF709F8054606E0FFF705F8401B82
:102D3000022801D90320D0E54748406B0221084012
:102D40000028F2D1206A00284FD0434840680C2167
:102D50000840082864D0206A022847D13E4800680D
:102D60000121090688433C490860FEF7E5FF054656
:102D700006E0FEF7E1FF401B022801D90320ACE585
:102D8000354800680121490608400028F1D100BFFC
:102D90003148C06A00090001E16A08432E49C8624F
:102DA000616AA06A08432C4949687B22D203914397
:102DB00008432949486000BF084600680121090608
:102DC000084325490860FEF7B7FF054606E0FEF711
:102DD000B3FF401B022801D903207EE51E4800688E
:102DE0000121490608400028F1D033E01A48006864
:102DF00001210906884318490860FEF79DFF054632
:102E000006E0FEF799FF401B022801D9032064E584
:102E1000114800680121490608400028F1D119E055
:102E2000206A012800D158E50B484668C76A03208C
:102E3000C0033040616A88420AD13907090FE06A4D
:102E4000814205D10F2080043040A16A884201D020
:102E5000012042E5002040E500100240F0B50646A2
:102E60000C46174600253068406812490840054660
:102E7000FF2000042840000CE0701F2000022840C2
:102E8000000A6070A806800EA0700720400328404A
:102E9000400B2070002F0BD1E07802F035FBE07082
:102EA000607802F031FB6070A07802F02DFBA0701A
:102EB0000020F0BD3FFFFF00F0B505460C46174669
:102EC00000262868806A6060286800694004400C19
:102ED000A060286800681249084006463F200004A8
:102EE0003040000C20707F2000023040000A6070EB
:102EF0007006400EA070012080053040800DE0700B
:102F0000002F0BD1207802F0FFFA2070607802F0D9
:102F1000FBFA6070A07802F0F7FAA0700020F0BD14
:102F20007F7F7F0070B504460125002C01D1012070
:102F300070BD607F002803D12077204600F052F852
:102F4000022060772068C06810210840000900282E
:102F50003FD100BFCA2021684862532021684862DF
:102F600000BF204602F0EAFA0546002D1DD1206878
:102F700080681B49084021688860216960680843AF
:102F8000616908432168896808432168886021686D
:102F9000E068086120680069218909040843216804
:102FA0000861204602F0F2FA0546002D0CD1206897
:102FB000006C012189048843216808642068006C42
:102FC000A16908432168086400BFFF2021684862A6
:102FD00000E00025002D01D1012060772846A7E7F9
:102FE000BFFF8FFF054A0168914205D10449096A74
:102FF000D2131143024A11627047000000280040BA
:1030000000100240FEB504460D461646002700207B
:103010000190009000BF207F012801D10220FEBD59
:103020000120207700BF02206077002E2AD120687F
:10303000806840210840002800D002E00020E870AD
:1030400000BFE869002800D100E000BF287802F046
:1030500068FA0304687802F064FA00020343A8786F
:1030600002F05FFA0343E878800503432021485DBE
:1030700002F057FA00060343E86903436869034313
:10308000019321E02068806840210840002800D09A
:1030900002E00020E87000BFE869002800D100E0ED
:1030A00000BF28780004697809020843A97808431A
:1030B000E978890508432021495D09060843E96943
:1030C0000843696908430190A9696868084300904A
:1030D00000BFCA202168486253202168486200BFAF
:1030E00020688068FF21013188432168886020685A
:1030F0008068012109038843216888602068C068CE
:10310000802108401D4908432168C860FEF714FE6D
:10311000074613E0FEF710FEC01B7D21C900884260
:103120000CD900BFFF202168486200BF03206077F0
:1031300000BF0020207700BF032070E72068C06830
:10314000C007C00F0028E5D001982168C861009829
:103150002168486420688068FF21013108432168A4
:10316000886000BFFF202168486200BF01206077AF
:1031700000BF0020207700BF00BF50E77FFEFFFFA9
:10318000F8B505460C4617460020009000BF287F82
:10319000012801D10220F8BD0120287700BF0220BC
:1031A0006877002F09D1607810210840102804D1D9
:1031B0006078EF2108400A306070002F11D1E0786C
:1031C00002F0AFF90304607802F0ABF900020343A8
:1031D000A07802F0A6F9034320784003034300934C
:1031E0000AE0E0780004617809020843A178084306
:1031F000217849030843009000BFCA20296848622B
:1032000053202968486200BF284602F097F9064615
:10321000002E08D10B4900980840296848602846CC
:1032200002F0B4F90646002E01D10120687700BFF4
:10323000FF202968486200BF00BF0020287700BF38
:103240003046A8E73FFFFF00F8B504460D46174695
:103250000020009000BF207F012801D10220F8BD8E
:103260000120207700BF02206077002F1BD120684B
:10327000806840210840002800D002E00020E8706B
:1032800000BF287802F04DF90304687802F049F98C
:1032900000020343A87802F044F90343E87880056C
:1032A0000343009314E02068806840210840002810
:1032B00000D002E00020E87000BF287800046978A0
:1032C00009020843A9780843E97889050843009072
:1032D00000BFCA202168486253202168486200BFAD
:1032E000204602F02BF90646002E17D1134900980C
:1032F00008402168086020688068012189048843AB
:10330000216888602969E86808432168896808435A
:1033100021688860204602F039F90646002E01D166
:103320000120607700BFFF202168486200BF00BF16
:103330000020207700BF304691E700007F7F7F00AC
:1033400070B5044600250C482168C860FEF7F4FCFF
:10335000054608E0FEF7F0FC401B7D21C9008842CD
:1033600001D9032070BD2068C068202108400028D2
:10337000F0D00020F6E700005D7D010070B5044646
:103380002546681E0949884201D901200CE0681EC3
:10339000074948610321081F03F0D0FB00200449BE
:1033A000886107200861002070BD0000FFFFFF005A
:1033B00000E000E07047704710B50446002C01D1D2
:1033C000012010BD3D20005D002805D100213C20DA
:1033D0000155204600F022F802213D200155211D13
:1033E000206802F0A3FC01214620015500BF3E20C9
:1033F00001553F200155402001554120015500BF96
:1034000000BF42200155432001554420015545206D
:10341000015500BF3D2001550020D2E738B50446D4
:1034200025492068884216D100BF2448C069102170
:1034300008432249C8610846C0691021084000902D
:1034400000BF00BF002211461120FFF74BF81120EA
:10345000FFF73AF82EE01A492068884216D100BFDB
:103460001648C069891508431449C8610846C069EF
:1034700089150840009000BF00BF002211461320AC
:10348000FFF730F81320FFF71FF813E00D4920680D
:1034900088420FD100BF09488069012149040843CF
:1034A0000649886108468069012149040840009066
:1034B00000BF00BF38BD00000010004000100240F7
:1034C000002000400044014001463D20405C0128AE
:1034D00001D00120704702233D2043540868C06892
:1034E000012318430B68D860104B0868984207D036
:1034F0000F4B0868984203D00E4B086898420CD1D5
:10350000086880684207520F062A0CD008680068D5
:10351000012318430B68186005E008680068012360
:1035200018430B6818600020D4E70000002C01400D
:103530000004004000400140704710B50446206878
:10354000006902210840400800281CD02068C0689B
:1035500008404008002816D0481F21680861012053
:103560002077206880698007800F002803D02046DC
:10357000FFF7E2FF05E0204600F0C3F8204600F028
:10358000C1F80020207720680069042108408008E5
:1035900000281DD02068C06808408008002817D087
:1035A000C8432168086102202077206880690321D0
:1035B00009020840002803D02046FFF7BDFF05E0C0
:1035C000204600F09EF8204600F09CF8002020776E
:1035D0002068006908210840C00800281CD0206825
:1035E000C0680840C008002816D0C8432168086198
:1035F000042020772068C0698007800F002803D04E
:103600002046FFF799FF05E0204600F07AF82046B3
:1036100000F078F800202077206800691021084029
:10362000000900281DD02068C06808400009002853
:1036300017D0C84321680861082020772068C06936
:10364000032109020840002803D02046FFF774FF39
:1036500005E0204600F055F8204600F053F8002021
:10366000207720680069C007C00F0121484048400A
:1036700000280CD02068C068084048404840002816
:1036800005D0C81E21680861204600F03DF820687A
:10369000006980210840C00900280BD02068C0685C
:1036A0000840C009002805D0C843216808612046A9
:1036B000FFF780FE2068006940210840800900284B
:1036C0000BD02068C06808408009002805D0C84396
:1036D00021680861204600F065F920680069202112
:1036E0000840400900280BD02068C0680840400905
:1036F000002805D0C843216808612046FFF75BFE1B
:1037000010BD70477047000010B50446824920681C
:1037100088427FD140210920C006FEF7FDFA00282B
:1037200008D120210920C006FEF7F6FA002801D1B1
:10373000FEF7E2FE79480068401C78490860784846
:103740000068401C76490860052176480078FDF73E
:103750004BF875490978884209DD744800780128DA
:1037600005D171480078401C6F49087005E06F482A
:103770000078012801D16E490870694800680C285A
:1037800009DD6C480078002805D16B4800680128E5
:1037900001D104F097FE012149020920C006FEF77D
:1037A000BBFA6449087065480078012810D00121EF
:1037B00009030920C006FEF7AFFA61490870084600
:1037C0000078002801D1012000E000205D49087048
:1037D0005D48007801281DD054480078012819D18F
:1037E00053480078012815D1C1020920C006FEF710
:1037F00093FA5649087008460078554908700846FB
:103800000078012806D1534908700020524900E091
:1038100000E008705149206888427CD150480088F7
:10382000401C4F4908804F480068012804D14E4889
:103830000068401C4C4908604B480068052817DBAD
:1038400000BF00BF00BF00BF00BFBFF34F8F00BF6E
:1038500000BF00BF45484649C86000BF00BF00BF69
:10386000BFF34F8F00BF00BF00BF00BF00BFFDE729
:103870003B4800882D214901884205DB0120394958
:1038800008600020364908803A480078401C3949D1
:10389000087008460078012814D100200870012023
:1038A0003549087000203549087022480078012801
:1038B00008D133480078002804D132480078401CF1
:1038C0003049087030480078401C2F4908702F4854
:1038D0000088401C2D4908802B480078022808DB0E
:1038E00001202B4908700020274908700120294930
:1038F000087029480078401C27490870084600785D
:10390000012808D12548007825490870002023495E
:1039100008702149087010BD00100040E00500202B
:10392000A806002053000020550000204100002080
:1039300056000020C5030020DC000020800000208D
:1039400081000020820000208300002084000020ED
:103950008500002086000020590100200020004042
:10396000C203002074000020780000200400FA0543
:1039700000ED00E05B000020580000207B010020EB
:103980001D0000207C000020260000207201002085
:1039900050010020280000208D0100208C01002013
:1039A0008E0100207047F8B504460D46174680206A
:1039B000005920283AD1002D01D0002F01D101203B
:1039C000F8BD01210903A068884208D120690028B8
:1039D00005D1E807C00F002801D00120F0E7012041
:1039E0002066002060663A462946204602F0DCFE4A
:1039F0000646002E18D1206E012814D1102021680F
:103A0000086200BF00BFEFF310800090012003F0B8
:103A1000D7F82068006810210843216808600098E2
:103A200003F0CEF800E001263046C9E70220C7E7E0
:103A3000704710B50446002C01D1012010BD242090
:103A4000E0672068006840084000216808600020A6
:103A5000216808602168486021688860204600F07D
:103A60002BFA0021842001510020E06780200151C1
:103A700000202066606600BF7820015500BF00204E
:103A8000DCE770470146842040587047F0B585B0A8
:103A900004462068C5692068066820688768E3488E
:103AA00028400390039800280FD1202028400028A8
:103AB0000BD020203040002807D0A06E002802D074
:103AC0002046A16E884705B0F0BD039800287DD040
:103AD000F807C00F002803D1D54830400028F6D0A1
:103AE000E807C00F00280DD0FF200130304000282B
:103AF00008D0012021680862842000590121084370
:103B0000842108510220284000280CD0F807C00F5B
:103B1000002808D00220216808628420005904216E
:103B20000843842108510420284000280CD0F807BD
:103B3000C00F002808D004202168086284200059A2
:103B4000022108438421085108202840002810D071
:103B500020203040002803D1F807C00F002808D0EB
:103B60000820216808628420005908210843842124
:103B700008510120C002284000280ED001208006F4
:103B80003040002809D00120C0022168086284204A
:103B9000005920210843842108518420005900281D
:103BA00054D020202840002809D020203040002870
:103BB00005D0A06E002802D02046A16E8847842040
:103BC0000059029020688068402100E03FE00840F2
:103BD000402804D0282102980840002830D02046F0
:103BE00002F080FC2068806840210840402823D1F2
:103BF00000BF02F0DFFF0190012002F0DEFF20682D
:103C000080684021884321688860019802F0D5FFD0
:103C100000BF606F00280BD08648616F4863606FFB
:103C2000FDF76DFC002811D0606F416B88470DE0F7
:103C30002046FFF726FF09E02046FFF722FF05E0B8
:103C40002046FFF71EFF0021842001513BE7206E34
:103C500001287DD110202840002879D01020304044
:103C60000028FAD01020216808622068806840216E
:103C7000084040286ED1606F0068406880B20190B3
:103C80000198002863D05820015B019881425EDDD5
:103C90005A2101980853606F806920284CD000BFDA
:103CA00002F088FF0090012002F087FF2068006882
:103CB000FF210131884321680860009802F07DFFF0
:103CC00000BF00BF02F076FF0090012002F075FFF8
:103CD000206880684008400021688860009802F0F1
:103CE0006CFF00BF00BF02F065FF0090012002F0F2
:103CF00064FF2068806840218843216888600098BC
:103D000002F05BFF00BF20218020015100202066CF
:103D100000BF02F04FFF0090012002F04EFF20682C
:103D200000681021884321680860009802F045FF70
:103D300000BF606FFDF7BAFB022060665820025B8F
:103D40005A20005B101A81B22046FFF771FEBAE6D6
:103D50004FE0FFE75820015B5A20005B081A80B251
:103D600001905A20005B002842D0019800283FD0E3
:103D700000BF02F01FFF0090012002F01EFF20682C
:103D80000068FF212131884321680860009802F013
:103D900014FF00BF00BF02F00DFF0090012002F0F1
:103DA0000CFF206880684008400021688860009807
:103DB00002F003FF00BF2021802001510020206677
:103DC000A06600BF02F0F6FE0090012002F0F5FEB2
:103DD000206800681021884321680860009802F07C
:103DE000ECFE00BF0220606620460199FFF720FE2E
:103DF00069E68020284000280AD080203040002832
:103E000006D0E06E002802D02046E16E88475AE6D0
:103E100040202840002807D040203040002803D010
:103E2000204602F09FFB4EE600BF4CE60F08000064
:103E3000200100041D63000810B50446002C01D1C8
:103E4000012010BDA069002800D000E000BFE06F95
:103E5000002805D1002178200155204600F04CF8BB
:103E60002420E0672068006840084000216808605E
:103E7000204602F0A9FB012800D1E2E7606A002891
:103E800002D0204602F052F9206840680121C902A0
:103E90008843216848602068806808218843216839
:103EA0008860206800680121084321680860204676
:103EB00002F0B4F9C5E7000010B504460C492068CB
:103EC000884214D10B48C06901214904884309493B
:103ED000C8610C210920C006FDF774FC606FFDF776
:103EE0003AFB206FFDF737FB1C20FEF7CFFA10BD21
:103EF000004400400010024010B586B00446142172
:103F000001A8FCF72FFC3949206888426BD100BF1B
:103F10003748C0690121490408433549C86108464A
:103F2000C069012149040840009000BF00BF00BFE4
:103F30002F48406908432E494861084640690121DD
:103F400049040840009000BF00BF0C2001900220EF
:103F5000029000200390032004900120059001A905
:103F60000920C006FDF7E0FD224823490860002033
:103F700048600021204881608021C16000210161EA
:103F80004161202181610021C161FDF789FB002889
:103F900001D0FDF7BAF900BF17486067446200BF5F
:103FA000144814381549086010204860002113484F
:103FB00081608021C1600021016141618161C16135
:103FC000FDF76EFB002801D0FDF79FF900BF0B48FD
:103FD0002067446200BF002211461C20FEF782FACF
:103FE0001C20FEF771FA06B010BD0000004400402E
:103FF00000100240580002404C0D0020900D00209F
:10400000F8B504460D46164680200059202834D1C4
:10401000002D01D0002E01D10120F8BD012109039E
:10402000A068884208D12069002805D1E807C00FA0
:10403000002801D00120F0E70020206620684068B9
:104040000121C9050840002811D000BF02F0B2FDCF
:104050000746012002F0B1FD2068006801218906B1
:10406000084321680860384602F0A7FD00BF3246C9
:104070002946204602F098FBCFE70220CDE77047A3
:1040800070470000F8B504460E461546E06F20283C
:1040900053D1002E01D0002D01D10120F8BD012106
:1040A0000903A068884208D12069002805D1F007DB
:1040B000C00F002801D00120F0E7E664502005532E
:1040C000522005530021842001512120E067206FF8
:1040D00000281CD01A48216F88621A48216FC862D4
:1040E0001948216F08630020216F486323681A462E
:1040F00028322B46E16C206FFDF700FB002806D02C
:104100001021842001512020E0670120C6E74020D3
:104110002168086200BF02F04DFD0746012002F051
:104120004CFD2068806880210843216888603846FB
:1041300002F043FD00BF0020B0E70220AEE7000020
:1041400079640008D7640008356300087047704739
:1041500000BFFEE701688969022211404908002971
:1041600002D000210268916201688969C907C90FFC
:10417000012251405140002904D10168896911434D
:104180000268916170470000F7B584B004460E469E
:10419000002003902068876900250698029010206F
:1041A0003840102854D12168C8613DE0701C0028B7
:1041B0003AD0FDF7C1FD0299401AB04201D8002E55
:1041C00032D12068406801218903084001904220D3
:1041D000005D00902068806949000840C00B0028FD
:1041E0000ED04910019888420AD00098202807D0A4
:1041F00020684068084321684860FDF79DFD0290F3
:104200000AE0FDF799FD0299401A192804D92020E7
:1042100005430120039006E02068806920210840C2
:1042200040090028EDD000BF2068806920210840A7
:104230004009002802D103980028B7D0039800282D
:1042400002D120202168C861042005430120039089
:1042500020688769FF2001303840FF210131884202
:1042600006D10120054300022168C86101200390A6
:1042700001208002384001218902884206D10820AD
:104280000543C0012168C86101200390012040025C
:10429000384001214902884206D10220054300022C
:1042A0002168C861012003900398002815D020469A
:1042B000FFF750FF206840680949084021684860BE
:1042C000606C284360642021412001550021422078
:1042D000015500BF4020015500BF039807B0F0BD55
:1042E00000E800FEFFB581B0044615461E460A9F51
:1042F0001B48F2B2002300902046029900F072F8A9
:10430000394620460B9A00F0F4F8002802D001202C
:1043100005B0F0BD012E03D1E8B22168886211E03A
:10432000FF2000022840001221688862394620469A
:104330000B9A00F0DEF8002801D00120E8E7E8B28F
:10434000216888620B983B4600224021009020465D
:1043500000F066F8002801D00120D9E70020D7E757
:1043600000200080FFB581B0044615461E460A9F16
:104370001B48F2B2C30200902046029900F032F8C6
:10438000394620460B9A00F0B4F8002802D00120EC
:1043900005B0F0BD012E03D1E8B22168886211E0BA
:1043A000FF2000022840001221688862394620461A
:1043B0000B9A00F09EF8002801D00120E8E7E8B24F
:1043C000216888620B983B4600228021009020469D
:1043D00000F026F8002801D00120D9E70020D7E717
:1043E00000200080F8B5069C8D05AD0D1604FF2752
:1043F0003F043E4035431D4325436D006D08009545
:1044000005686E68650D0127BF023D40034F3D43BF
:10441000AE43009D2E4305686E60F8BDFF63FF0349
:10442000F8B504460D4617461E4623E0701C0028CA
:1044300020D0FDF781FC0699401AB04201D8002E29
:1044400018D1206880692840A84201D1012000E0ED
:104450000020B8420ED1606C2021084360644120E6
:10446000015500214220015500BF4020015500BFE9
:104470000120F8BD206880692840A84201D10120B0
:1044800000E00020B842D1D00020F2E770B5044629
:104490000D46164624E0324629462046FFF774FEB4
:1044A000002801D0012070BDFDF746FC801BA8420A
:1044B00001D8002D14D120688069202108404009CE
:1044C00000280DD1606C0843606441200155002133
:1044D0004220015500BF4020015500BF0120E2E706
:1044E000206880692021084040090028D3D000209E
:1044F000D9E770B504460D46164628E032462946EF
:104500002046FFF741FE002801D0012070BD681C45
:1045100000281CD0FDF710FC801BA84201D8002DFC
:1045200015D12068806902210840400800280ED17A
:10453000606C202108436064412001550021422025
:10454000015500BF4020015500BF0120DEE7206873
:1045500080690221084040080028CFD00020D5E71C
:1045600010B503480068012801D100F0C9F810BD5A
:10457000DC00002010B5012211020848FDF7D5FB30
:104580000120FDF709F90022FF2101310348FDF761
:10459000CCFB0120FDF700F910BD0000000400482D
:1045A00070B506460D460C480068012812D1002D52
:1045B00001D1802408E0012D01D1C02404E0022DA6
:1045C00001D1942400E0D424A019C4B2204600F004
:1045D00097F800BF70BD0000DC00002010B500207F
:1045E00000F04AF80022012149020F48FDF79DFB27
:1045F000032000F041F8FFF7BDFFFFF7BBFFFFF717
:10460000B9FF022000F038F8FFF7B4FF282000F0CF
:1046100077F80C2000F074F8062000F071F8012003
:1046200000F06EF810BD00000004004810B504460C
:10463000012251020648FDF778FB204600F060F8A1
:104640000022012149020248FDF76FFB10BD000066
:104650000004004810B5044606480068012807D148
:1046600003E02078FFF7E2FF641C20780028F8D1EF
:1046700010BD0000DC00002010B50446E007C00FAC
:10468000002805D0012220211C48FDF74EFB04E044
:10469000002220211948FDF748FBA007C00F002881
:1046A00005D0012210211548FDF73FFB04E0002250
:1046B00010211248FDF739FB6007C00F002805D014
:1046C000012208210D48FDF730FB04E000220821FB
:1046D0000A48FDF72AFB2007C00F002806D0012258
:1046E000D1030920C006FDF720FB06E000220121CE
:1046F000C9030920C006FDF718FB10BD00040048DF
:1047000010B504462011FFF7B7FFFFF733FF20462F
:10471000FFF7B2FFFFF72EFF10BD000010B5FFF747
:104720001FFF00204149088041490880212041495C
:10473000086078E03F480068212826D13E48FDF710
:1047400037FE3E483A490988405C3D4908700220DE
:104750003C49087000210846FFF722FF3AA0FFF706
:1047600079FF01210020FFF71BFF314800888000FE
:104770003949421839A14048FBF7BCFD3E48FFF7D4
:1047800069FFFF20F530FDF707F828480088012869
:1047900030D13A4800887D21C90088422ADA284869
:1047A0000078022826D12448FDF702FEFF20F530CC
:1047B000FCF7F2FF0120324908700C460122214625
:1047C0003048FCF775FDFFF7CBFE00210846FFF7E8
:1047D000E7FE2DA0FFF73EFF01210020FFF7E0FEDE
:1047E0002CA0FFF737FF7D200001FCF7D5FFFDF778
:1047F00083FE18E00D480088012814D11F48008866
:104800007D21C90088420EDA0D48007801280AD1BE
:104810000948FDF7CDFD00200649086003490880DE
:104820000349088000E085E700BF10BDE6050020D1
:10483000E805002000060020BC0B00203E010020FF
:1048400055010020A206002044495341424C452C0A
:1048500020535552453F000047010020202573207A
:104860002020202020202020202020202020202048
:104870002020202020202000041700209C0600205B
:10488000830000204A0400004C4620444953414222
:104890004C4500004E4F57205245424F4F54494E11
:1048A000470000001FB5002003906420012103AAE7
:1048B0000B46009201910290002240211048FDF722
:1048C000F1FB104908700A20FCF766FF0D480078DC
:1048D000002810D06420012103AA0B460092019108
:1048E0000290002240210648FDF7DCFB05490870D4
:1048F0001E20FCF751FF0348007804B010BD0000F3
:10490000680B00206301002001B584B06420012100
:1049100004AA0B46009201910290122240211248F3
:10492000FDF7C0FB114908701E20FCF735FF0F484A
:104930000078002810D06420012104AA0B460092C0
:1049400001910290122240210748FDF7ABFB074975
:1049500008701E20FCF720FF6846007C04490870A0
:104960000248007805B000BD680B002062010020FD
:104970006A0100201FB5002003906420012103AAD2
:104980000B460092019102900A4640211048FDF723
:1049900089FB104908700A20FCF7FEFE0D480078DC
:1049A000002810D06420012103AA0B460092019137
:1049B00002900A4640210648FDF774FB054908703D
:1049C0001E20FCF7E9FE0348007804B010BD00008B
:1049D000680B00206301002001B584B06420012130
:1049E00004AA0B4600920191029013224021124822
:1049F000FDF758FB114908701E20FCF7CDFE0F484B
:104A00000078002810D06420012104AA0B460092EF
:104A100001910290132240210748FDF743FB07490B
:104A200008701E20FCF7B8FE6846007C0449087038
:104A30000248007805B000BD680B0020620100202C
:104A40006B01002008B500BF0A48406901210843F6
:104A50000849486108464069C007C00F009000BF80
:104A600000BF002211460B20FDF73CFD0B20FDF797
:104A70002BFD08BD0010024000B587B0142102A82C
:104A8000FBF770FE00BF684840690121C904084374
:104A900065494861084640690121C9040840019000
:104AA00000BF00BF00BF60484069C90008435E49BD
:104AB000486108464069012189050840019000BF0E
:104AC00000BF00BF58484069491108435649486132
:104AD00008464069012149040840019000BF00BF19
:104AE00000BF51484069490008434F4948610846A2
:104AF0004069012189040840019000BF00BF0022E5
:104B00004A498806FDF711F90022CF21890048485B
:104B1000FDF70BF94748029000200390049002A98A
:104B20000920C006FDF700F84348029001200390D9
:104B300000200490059002A90920C006FCF7F4FFAC
:104B4000FF20013002901120039000200490059076
:104B500002A90920C006FCF7E7FF012080030290AC
:104B60001120039000200490059002A93048FCF722
:104B7000DBFFE0200290212000040390002004903D
:104B800002A90920C006FCF7CFFF032002902120D4
:104B9000000403900020049002A92548FCF7C4FFFC
:104BA000CF20800002900120039000200490059007
:104BB00002A91F48FCF7B8FF0120800202901120D3
:104BC000000403900020049002A90920C006FCF70D
:104BD000ABFF0120C003029001200390002004904D
:104BE000059002A91248FCF79FFF012040030290A4
:104BF0000120039000200490059002A90C48FCF7C6
:104C000093FF002211460520FDF76CFC0520FDF7FF
:104C10005BFC002211460720FDF764FC0720FDF72E
:104C200053FC07B000BD00000010024012810000DC
:104C300000040048011A00001280000010B513485B
:104C40001349086013484860002111488160012120
:104C5000C1600021016141618161C1610162FDF7B3
:104C6000E1F8002801D0FCF750FB00210848FDF7CF
:104C700069F8002801D0FCF748FB00210448FDF743
:104C800098F8002801D0FCF740FB10BD005400400C
:104C9000140B00200E09002010B5134813490860BA
:104CA000134848600021114881600121C160002142
:104CB000016141618161C1610162FDF7B3F80028C2
:104CC00001D0FCF722FB00210848FDF73BF8002843
:104CD00001D0FCF71AFB00210448FDF76AF8002810
:104CE00001D0FCF712FB10BD00580040680B0020FB
:104CF000FE8A417010B508480849086005204860E0
:104D000007490648C1608160FDF714FB002801D007
:104D1000FCF7FBFA10BD000000300040BC0B002087
:104D2000FF0F000000B591B014210CA8FBF71AFD8D
:104D300000200B90282101A8FBF714FD2F483049D3
:104D40000860002048607F212D488160FF21C160FC
:104D50000021016141618161FEF7E4F8002801D082
:104D6000FCF7D3FA2748017808A80174264801788F
:104D700008A841740021817400200F901090002237
:104D80000CA91F48FEF760FA002801D0FCF7BDFA15
:104D90001E48017808A801731D48017808A84173CE
:104DA0001C48017808A881731B48017808A8C173C2
:104DB00000220BA91248FEF7E3F9002801D0FCF706
:104DC000A4FA0021684601714171817100200290AE
:104DD00004900590069007900890012108A80171A1
:104DE00008020A90002201A90548FEF70BF90028E5
:104DF00001D0FCF78AFA11B000BD00000028004085
:104E0000CC0B00209006002094060020980600207D
:104E100088060020840600208C06002010B50A4871
:104E20000A4908600A484860002108488160094929
:104E3000C160002101618161FEF7BEFA002801D046
:104E4000FCF763FA10BD000000200040340C002085
:104E50007F3E00005FEA000010B50A480A4908607A
:104E6000002048600021084881600849C160002195
:104E7000016141618161FEF79FFA002801D0FCF7D2
:104E800044FA10BD004401407C0C0020FFFF0000EC
:104E900010B50948094908600948486000210748D9
:104EA00081600849C16000218161FEF785FA002810
:104EB00001D0FCF72AFA10BD00100040EC0B0020D6
:104EC0007F3E00008713000010B50E480E490860B1
:104ED000E1204002486000210B488160C16001610F
:104EE0000C21416100218161C161016200200649FC
:104EF00048620846FEF7A0FF002801D0FCF705FA3B
:104F000010BD000000440040C40C002000BFFEE7BC
:104F10001CB50120F4490870FFF722FB0020F3497B
:104F20000880F3490880F3490880F3490880F34971
:104F300008602C20F2490860F248002101604160BD
:104F40008160C1600020F0490870F0490870F049A4
:104F50000870F0490870C3E1E348007801287DD16A
:104F6000ED48FDF725FA0920EC49087000210846B4
:104F7000FFF716FBEAA0FFF76DFB01210020FFF70A
:104F80000FFBE4480078E249097800910190DF487E
:104F90000378DD480278E7A1DA48FBF7ABF9D94896
:104FA000FFF758FBD64800682C283CD14B20C000A6
:104FB000FCF7F2FB01210020FFF7F2FAE2A0FFF775
:104FC00049FBCA480088012803D0C9480088CE4957
:104FD0000870CA48006801280FD10020C84908603D
:104FE000C2490880C2490880C2490880C249088075
:104FF000C2490860BC49087073E1BC4800880128B8
:1050000011D1D24800887D21C90088420BDA0220E4
:10501000BB4908600020B5490880B5490880B549FA
:105020000880B5490880B648006802283CD14B206A
:10503000C000FCF7B1FB01210220FFF7B1FAC2A0CA
:10504000FFF708FBA9480088012803D0A84800887A
:10505000AE490870A9480068012800E0A4E00DD11D
:105060002C20A74908600020A0490880A04908809A
:10507000A0490880A0490880A04908609B48008892
:10508000012811D1B14800887D21C90088420BDA7E
:1050900003209B49086000209449088094490880B7
:1050A00094490880944908809548006803283AD1BB
:1050B0004B20C000FCF770FB01210420FFF770FAC1
:1050C000A1A0FFF7C7FA89480088012803D08848C3
:1050D00000888F4908708948006801280DD1022096
:1050E00087490860002081490880814908808149FA
:1050F000088081490880814908607C48008801282F
:1051000011D1924800887D21C90088420BDA042021
:105110007B490860002075490880754908807549F9
:105120000880754908807648006804283CD14B20E7
:10513000C000FCF731FB01210620FFF731FA82A005
:10514000FFF788FA69480088012803D0684800887A
:10515000704908706948006801280DD1032068492A
:105160000860002061490880614908806149088021
:1051700061490880614908605C480088012813D1B2
:10518000724800887D21C90088420DDA05205C49FB
:105190000860002055490880554908805549088015
:1051A00055490880504908705548006805287DD148
:1051B0005948FDF7FDF86648007801282BD065486E
:1051C000007851490978884225D1624840784F4992
:1051D000097888421FD15F4880784D490978884214
:1051E00019D15C48C0784B490978884213D1002016
:1051F00043490860012058490870FFF7B1F90021C0
:105200000846FFF7CDF955A0FFF724FA7D20C0002E
:10521000FCF7C2FA65E04E48007801282BD14D48D2
:10522000007839490978884225D14A484078374979
:10523000097888421FD147488078354909788842E3
:1052400019D14448C07833490978884213D10020E5
:105250002B490860012040490870FFF781F90021BF
:105260000846FFF79DF93DA0FFF7F4F97D20C00047
:10527000FCF792FA35E03648007801281AD1224826
:105280000078002816D121480078002812D1204843
:10529000007800280ED11F48007800280AD11E4847
:1052A000FDF786F800201649086000E018E000F0DD
:1052B000ABFA16E01848FDF77BF8002010490860AB
:1052C00025490870FFF74CF900210846FFF768F9F7
:1052D00026A0FFF7BFF97D200001FCF75DFA00E092
:1052E0003AE600BF1CBD00007D010020E60500205D
:1052F000E8050020EA050020EC0500200406002057
:1053000000060020D40D00204301002044010020AD
:105310004501002046010020BC0B0020A206002011
:10532000454E5445522050415353434F44453A2033
:1053300000000000253031642E253031642E2530E8
:1053400031642E2530316400200000009C060020CE
:105350007F010020800100207E0100205041535336
:1053600020434F52524543540000000050415353D4
:105370002057524F4E4700007047000010B5FFF70E
:10538000EFF8002041490880414908802120414927
:10539000086078E03F480068212826D13E48FDF7A4
:1053A00007F83E483A490988405C3D4908700220A8
:1053B0003C49087000210846FFF7F2F83AA0FFF7D1
:1053C00049F901210020FFF7EBF8314800888000FF
:1053D0003949421839A14048FAF78CFF3E48FFF797
:1053E00039F9FF20F530FCF7D7F928480088012863
:1053F00030D13A4800887D21C90088422ADA2848FD
:105400000078022826D12448FCF7D2FFFF20F5308F
:10541000FCF7C2F90120324908700C4601222146EE
:105420003048FBF745FFFFF79BF800210846FFF7E0
:10543000B7F82DA0FFF70EF901210020FFF7B0F813
:105440002DA0FFF707F97D200001FCF7A5F9FDF776
:1054500053F818E00D480088012814D11F4800882F
:105460007D21C90088420EDA0D48007801280AD152
:105470000948FCF79DFF00200649086003490880A1
:105480000349088000E085E700BF10BDE605002065
:10549000E805002000060020BC0B00203E01002093
:1054A00055010020A206002044495341424C452C9E
:1054B00020535552453F000047010020202573200E
:1054C00020202020202020202020202020202020DC
:1054D0002020202020202000041700209C060020EF
:1054E00080000020490400005241494E20444953A5
:1054F00041424C45000000004E4F57205245424F5C
:105500004F54494E47000000014600BFF0200840BC
:1055100000090A23584302460807000F8018C0B24A
:1055200070470146002203E0521C08460A38C1B207
:105530000A29F9D21007000E0843704770B50446D7
:10554000002600252068C0684021084000281BD1A3
:105550002068C068802108432168C860FCF7ECFB24
:10556000064609E0FCF7E8FB801B7D21C900884264
:1055700002D90420607701252068C06840210840D6
:10558000002801D1012DEDD1284670BD70B504462B
:1055900000252068C068802188432168C860206891
:1055A000806820210840002807D12046FDF7C8FE6A
:1055B000002802D0042060770125284670BD000035
:1055C00000B587B02D48FCF7F3FEFEF7C9FF1421A4
:1055D00002A8FBF7C7F800200190002202A9284882
:1055E000FDF76AFC6846017A3C2041436846407AF0
:1055F000081824490880002201A92148FDF72EFC43
:105600006846007920490870084600781F490870EC
:10561000FEF7A6FF00210846FEF7C2FF6846C079E4
:105620007D2109014018009068464379827918A1CC
:105630001C48FAF75FFE1B48FFF70CF86846007934
:10564000401E0A2148431849401800906846437A92
:10565000027A16A11348FAF74DFE01210020FEF749
:105660009FFF1048FEF7F6FF1648FCF795F86421F7
:105670000C48FBF775F807B000BD0000BC0B00201C
:10568000CC0B0020C2030020C4030020C60300206E
:10569000444154453A20253032642F253032642F5E
:1056A00025346400A01600206804002054494D45AC
:1056B0003A20253032643A25303264202025337375
:1056C000000000008813000070B588B03D48FCF76A
:1056D0006FFEFEF745FF142103A8FBF743F80020F7
:1056E00002903C2138480088FBF77EF804463C20B5
:1056F0006043354909880D1A002202A93348FDF795
:10570000ADFBFEF72DFF00210846FEF749FF684676
:10571000C07A7D210901401800906846437A827A58
:105720002BA13048FAF7E6FD2E48FEF793FF18212B
:105730002046FBF759F80E466846007A401E0A21BB
:105740004843294940182B46324628A10090254855
:10575000FAF7D0FD01210020FEF722FF2148FEF7D5
:1057600079FF6420FCF718F801210820FEF718FFE4
:1057700024A0FEF76FFF6420FCF70EF80121002043
:10578000FEF70EFF18212046FBF72EF80E4668465E
:10579000007A401E0A214843134940182B463246DE
:1057A00012A100900F48FAF7A5FD0E48FEF752FF30
:1057B0006420FBF7F1FF64210A48FAF7D1FF08B033
:1057C00070BD0000BC0B0020C2030020CC0B0020E9
:1057D000444154453A20253032642F253032642F1D
:1057E00025346400A01600206804002054494D456B
:1057F0003A20253032643A25303264202025337334
:1058000000000000200000007CB50120E549087080
:10581000FEF7A6FE0020E4490880E4490880E44938
:105820000880E4490880E44908602C20E3490860C6
:10583000E3480021016041608160C1600020E149CE
:105840000870E1490870E1490870E1490870A6E173
:10585000D448007801287DD1DE48FCF7A9FD092055
:10586000DD49087000210846FEF79AFEDBA0FEF72E
:10587000F1FE01210020FEF793FED5480078D349C0
:10588000097800910190D0480378CE480278D8A1D9
:10589000CB48FAF72FFDCA48FEF7DCFEC748006880
:1058A0002C283CD14B20C000FBF776FF01210020C3
:1058B000FEF776FED3A0FEF7CDFEBB480088012898
:1058C00003D0BA480088BF490870BB480068012867
:1058D0000FD10020B9490860B3490880B349088056
:1058E000B3490880B3490880B3490860AD490870DE
:1058F00056E1AD480088012811D1C34800887D21B8
:10590000C90088420BDA0220AC4908600020A64991
:105910000880A6490880A6490880A6490880A748AB
:10592000006802283CD14B20C000FBF735FF012165
:105930000220FEF735FEB3A0FEF78CFE9A480088E1
:10594000012803D0994800889F4908709A48006848
:10595000012800E0A4E00DD12C2098490860002027
:1059600091490880914908809149088091490880AF
:10597000914908608C480088012811D1A24800880C
:105980007D21C90088420BDA03208C490860002081
:1059900085490880854908808549088085490880AF
:1059A0008648006803283AD14B20C000FBF7F4FE7C
:1059B00001210420FEF7F4FD92A0FEF74BFE7A4889
:1059C0000088012803D079480088804908707A4807
:1059D000006801280DD10220784908600020724932
:1059E00008807249088072490880724908807249AB
:1059F00008606D480088012811D1834800887D2106
:105A0000C90088420BDA04206C490860002066490E
:105A100008806649088066490880664908806748AA
:105A2000006804283CD14B20C000FBF7B5FE0121E3
:105A30000620FEF7B5FD73A0FEF70CFE5A4800885D
:105A4000012803D059480088614908705A48006805
:105A500001280DD1032059490860002052490880CF
:105A600052490880524908805249088052490860CA
:105A70004D480088012813D1634800887D21C90062
:105A800088420DDA05204D4908600020464908800B
:105A900046490880464908804649088041490870BF
:105AA0004648006805287AD14A48FCF781FC4548F9
:105AB0000078564908704448007848704348007898
:105AC000887043480078C870084600787D21C90076
:105AD00048434E4949786422514341184B488078E5
